{
  "_format": "hh-sol-artifact-1",
  "contractName": "PublicRandomService",
  "sourceName": "contracts/PublicRandomService.sol",
  "abi": [
    {
      "inputs": [],
      "stateMutability": "nonpayable",
      "type": "constructor"
    },
    {
      "anonymous": false,
      "inputs": [
        {
          "indexed": true,
          "internalType": "address",
          "name": "previousOwner",
          "type": "address"
        },
        {
          "indexed": true,
          "internalType": "address",
          "name": "newOwner",
          "type": "address"
        }
      ],
      "name": "OwnershipTransferred",
      "type": "event"
    },
    {
      "inputs": [],
      "name": "_seed",
      "outputs": [
        {
          "internalType": "uint256",
          "name": "",
          "type": "uint256"
        }
      ],
      "stateMutability": "view",
      "type": "function"
    },
    {
      "inputs": [],
      "name": "donate",
      "outputs": [],
      "stateMutability": "payable",
      "type": "function"
    },
    {
      "inputs": [],
      "name": "owner",
      "outputs": [
        {
          "internalType": "address",
          "name": "",
          "type": "address"
        }
      ],
      "stateMutability": "view",
      "type": "function"
    },
    {
      "inputs": [
        {
          "internalType": "uint256",
          "name": "input",
          "type": "uint256"
        }
      ],
      "name": "rand",
      "outputs": [
        {
          "internalType": "uint256",
          "name": "",
          "type": "uint256"
        }
      ],
      "stateMutability": "nonpayable",
      "type": "function"
    },
    {
      "inputs": [],
      "name": "renounceOwnership",
      "outputs": [],
      "stateMutability": "nonpayable",
      "type": "function"
    },
    {
      "inputs": [
        {
          "internalType": "address",
          "name": "newOwner",
          "type": "address"
        }
      ],
      "name": "transferOwnership",
      "outputs": [],
      "stateMutability": "nonpayable",
      "type": "function"
    },
    {
      "inputs": [],
      "name": "withdraw",
      "outputs": [],
      "stateMutability": "nonpayable",
      "type": "function"
    },
    {
      "stateMutability": "payable",
      "type": "receive"
    }
  ],
  "bytecode": "0x608060405234801561001057600080fd5b5061002d61002261007f60201b60201c565b61008760201b60201c565b60403373ffffffffffffffffffffffffffffffffffffffff16901b73ffffffffffffffffffffffffffffffffffffffff16434261006a9190610184565b6100749190610184565b6001819055506101b8565b600033905090565b60008060009054906101000a900473ffffffffffffffffffffffffffffffffffffffff169050816000806101000a81548173ffffffffffffffffffffffffffffffffffffffff021916908373ffffffffffffffffffffffffffffffffffffffff1602179055508173ffffffffffffffffffffffffffffffffffffffff168173ffffffffffffffffffffffffffffffffffffffff167f8be0079c531659141344cd1fd0a4f28419497f9722a3daafe3b4186f6b6457e060405160405180910390a35050565b6000819050919050565b7f4e487b7100000000000000000000000000000000000000000000000000000000600052601160045260246000fd5b600061018f8261014b565b915061019a8361014b565b92508282019050808211156101b2576101b1610155565b5b92915050565b61071f806101c76000396000f3fe6080604052600436106100745760003560e01c8063715018a61161004e578063715018a6146100ff5780638da5cb5b14610116578063ed88c68e14610141578063f2fde38b1461014b5761007b565b80632530c905146100805780633ccfd60b146100bd5780635a34d356146100d45761007b565b3661007b57005b600080fd5b34801561008c57600080fd5b506100a760048036038101906100a2919061049f565b610174565b6040516100b491906104db565b60405180910390f35b3480156100c957600080fd5b506100d2610201565b005b3480156100e057600080fd5b506100e9610252565b6040516100f691906104db565b60405180910390f35b34801561010b57600080fd5b50610114610258565b005b34801561012257600080fd5b5061012b61026c565b6040516101389190610537565b60405180910390f35b610149610295565b005b34801561015757600080fd5b50610172600480360381019061016d919061057e565b610297565b005b60004360116001548161018a576101896105ab565b5b0643901b604d3373ffffffffffffffffffffffffffffffffffffffff16901b01016007600154901c72af103b572ade723621af450770b4c6fd5a29576005600d600154816101db576101da6105ab565b5b060185901b856025600154901b6001540101010101186001819055506001549050919050565b61020961031a565b3373ffffffffffffffffffffffffffffffffffffffff166108fc479081150290604051600060405180830381858888f1935050505015801561024f573d6000803e3d6000fd5b50565b60015481565b61026061031a565b61026a6000610398565b565b60008060009054906101000a900473ffffffffffffffffffffffffffffffffffffffff16905090565b565b61029f61031a565b600073ffffffffffffffffffffffffffffffffffffffff168173ffffffffffffffffffffffffffffffffffffffff160361030e576040517f08c379a00000000000000000000000000000000000000000000000000000000081526004016103059061065d565b60405180910390fd5b61031781610398565b50565b61032261045c565b73ffffffffffffffffffffffffffffffffffffffff1661034061026c565b73ffffffffffffffffffffffffffffffffffffffff1614610396576040517f08c379a000000000000000000000000000000000000000000000000000000000815260040161038d906106c9565b60405180910390fd5b565b60008060009054906101000a900473ffffffffffffffffffffffffffffffffffffffff169050816000806101000a81548173ffffffffffffffffffffffffffffffffffffffff021916908373ffffffffffffffffffffffffffffffffffffffff1602179055508173ffffffffffffffffffffffffffffffffffffffff168173ffffffffffffffffffffffffffffffffffffffff167f8be0079c531659141344cd1fd0a4f28419497f9722a3daafe3b4186f6b6457e060405160405180910390a35050565b600033905090565b600080fd5b6000819050919050565b61047c81610469565b811461048757600080fd5b50565b60008135905061049981610473565b92915050565b6000602082840312156104b5576104b4610464565b5b60006104c38482850161048a565b91505092915050565b6104d581610469565b82525050565b60006020820190506104f060008301846104cc565b92915050565b600073ffffffffffffffffffffffffffffffffffffffff82169050919050565b6000610521826104f6565b9050919050565b61053181610516565b82525050565b600060208201905061054c6000830184610528565b92915050565b61055b81610516565b811461056657600080fd5b50565b60008135905061057881610552565b92915050565b60006020828403121561059457610593610464565b5b60006105a284828501610569565b91505092915050565b7f4e487b7100000000000000000000000000000000000000000000000000000000600052601260045260246000fd5b600082825260208201905092915050565b7f4f776e61626c653a206e6577206f776e657220697320746865207a65726f206160008201527f6464726573730000000000000000000000000000000000000000000000000000602082015250565b60006106476026836105da565b9150610652826105eb565b604082019050919050565b600060208201905081810360008301526106768161063a565b9050919050565b7f4f776e61626c653a2063616c6c6572206973206e6f7420746865206f776e6572600082015250565b60006106b36020836105da565b91506106be8261067d565b602082019050919050565b600060208201905081810360008301526106e2816106a6565b905091905056fea26469706673582212208a1b5e45332bbcbaa6ce1a962acaabf2ca116c13f52245eff344cc1f498bbf5964736f6c63430008110033",
  "linkReferences": {},
  "deployedLinkReferences": {}
}